:020000020000FC
:040000000C94460016
:040030000C94C2006A
:040084000C94C9000F
:10008C000FEF0DBF00E10EBF0FEF04BB03E00ABB87
:10009C0000E00E94B40006E00E94B40008E30E9455
:1000AC00B40000E80E94B40000E00EBB00E00FBBFF
:1000BC0010E0E199FECFE09A0DB30E94A6000EB3BA
:1000CC0003950EBB139510310FB701FFF2CF00EC67
:1000DC000E94B40010E0E199FECFE09A0DB30E94AB
:1000EC00A6000EB303950EBB139510310FB701FF8D
:1000FC00F2CF0CE00E94B40000E20093700000E02C
:10010C0000937100E8E0F1E003E0019300E001935B
:10011C0004E0008308E30BBD0FE30ABD01E000BD62
:10012C0000E107BF0DE00EBD40E090E07894913007
:10013C0011F40E946F019230D1F70E943A01F7CF6F
:10014C0005BBD99A2FEF0E942C01D89A2FEF0E9451
:10015C002C01D8982FEF0E942C01089505BBD9983B
:10016C002FEF0E942C01D89A2FEF0E942C01D898C7
:10017C002FEF0E942C01089590E038EB40E005EA47
:10018C0000937400189580917100887F883019F461
:10019C000E94F4001895883119F40E94FA00189501
:1001AC00803219F40E9405011895883219F40E94C6
:1001BC000A011895803419F40E941701189580359E
:1001CC0019F40E9421011895883539F400917300B7
:1001DC00008392E005E90093740018953093730046
:1001EC0005E800937400089539EB40E0E8E0F1E095
:1001FC0001910093730005E800937400089591E059
:10020C0005E9009374000895439505E991E04330A6
:10021C0029F001910093730090E005E800937400BD
:10022C00089540E024E00E942C01E0E0F1E005ECB0
:10023C0000937400089500917300019305EC4395AD
:10024C00473009F405E800937400089523BD01E0DC
:10025C0000BD0BE005BD06B707FFFDCF00E005BDF7
:10026C0006B7006806BF089540E090E0A2E0B1E058
:10027C006D915D910E947801EEE0F1E00BEC0E9433
:10028C00B40002910E94A60002910E94A6000EECFE
:10029C000E94B40002910E94A6006D915C9109E845
:1002AC000E94B4000DE267FF0BE20E94A6006F777C
:1002BC000E947801EEE0F1E002910E94A60002910A
:1002CC000E94A6000DE80E94B40002910E94A600B4
:1002DC00089540E090E026EE0E942C0105EA009380
:1002EC0074000895EBE0F1E070E0603009F002C0BA
:1002FC005A3020F073955A506040F7CF00E3500FFE
:10030C0051937A3018F0572F70E0F4CF00E3700F50
:04031C00708308954D
:00000001FF
